{
  "_format": "hh-sol-artifact-1",
  "contractName": "Crypto528",
  "sourceName": "contracts/Crypto528.sol",
  "abi": [
    {
      "inputs": [],
      "stateMutability": "nonpayable",
      "type": "constructor"
    },
    {
      "anonymous": false,
      "inputs": [
        {
          "indexed": true,
          "internalType": "address",
          "name": "owner",
          "type": "address"
        },
        {
          "indexed": true,
          "internalType": "address",
          "name": "approved",
          "type": "address"
        },
        {
          "indexed": true,
          "internalType": "uint256",
          "name": "tokenId",
          "type": "uint256"
        }
      ],
      "name": "Approval",
      "type": "event"
    },
    {
      "anonymous": false,
      "inputs": [
        {
          "indexed": true,
          "internalType": "address",
          "name": "owner",
          "type": "address"
        },
        {
          "indexed": true,
          "internalType": "address",
          "name": "operator",
          "type": "address"
        },
        {
          "indexed": false,
          "internalType": "bool",
          "name": "approved",
          "type": "bool"
        }
      ],
      "name": "ApprovalForAll",
      "type": "event"
    },
    {
      "anonymous": false,
      "inputs": [
        {
          "indexed": true,
          "internalType": "address",
          "name": "previousOwner",
          "type": "address"
        },
        {
          "indexed": true,
          "internalType": "address",
          "name": "newOwner",
          "type": "address"
        }
      ],
      "name": "OwnershipTransferred",
      "type": "event"
    },
    {
      "anonymous": false,
      "inputs": [
        {
          "indexed": true,
          "internalType": "address",
          "name": "from",
          "type": "address"
        },
        {
          "indexed": true,
          "internalType": "address",
          "name": "to",
          "type": "address"
        },
        {
          "indexed": true,
          "internalType": "uint256",
          "name": "tokenId",
          "type": "uint256"
        }
      ],
      "name": "Transfer",
      "type": "event"
    },
    {
      "inputs": [
        {
          "internalType": "address",
          "name": "to",
          "type": "address"
        },
        {
          "internalType": "uint256",
          "name": "tokenId",
          "type": "uint256"
        }
      ],
      "name": "approve",
      "outputs": [],
      "stateMutability": "nonpayable",
      "type": "function"
    },
    {
      "inputs": [
        {
          "internalType": "address",
          "name": "owner",
          "type": "address"
        }
      ],
      "name": "balanceOf",
      "outputs": [
        {
          "internalType": "uint256",
          "name": "",
          "type": "uint256"
        }
      ],
      "stateMutability": "view",
      "type": "function"
    },
    {
      "inputs": [
        {
          "internalType": "uint256",
          "name": "tokenId",
          "type": "uint256"
        }
      ],
      "name": "getApproved",
      "outputs": [
        {
          "internalType": "address",
          "name": "",
          "type": "address"
        }
      ],
      "stateMutability": "view",
      "type": "function"
    },
    {
      "inputs": [
        {
          "internalType": "address",
          "name": "owner",
          "type": "address"
        },
        {
          "internalType": "address",
          "name": "operator",
          "type": "address"
        }
      ],
      "name": "isApprovedForAll",
      "outputs": [
        {
          "internalType": "bool",
          "name": "",
          "type": "bool"
        }
      ],
      "stateMutability": "view",
      "type": "function"
    },
    {
      "inputs": [],
      "name": "marketplaceContractAddress",
      "outputs": [
        {
          "internalType": "address",
          "name": "",
          "type": "address"
        }
      ],
      "stateMutability": "view",
      "type": "function"
    },
    {
      "inputs": [
        {
          "internalType": "uint256",
          "name": "_id",
          "type": "uint256"
        },
        {
          "internalType": "address",
          "name": "_to",
          "type": "address"
        },
        {
          "internalType": "string",
          "name": "_tokenURI",
          "type": "string"
        }
      ],
      "name": "mint",
      "outputs": [],
      "stateMutability": "nonpayable",
      "type": "function"
    },
    {
      "inputs": [
        {
          "internalType": "uint256[]",
          "name": "_ids",
          "type": "uint256[]"
        },
        {
          "internalType": "address[]",
          "name": "_tos",
          "type": "address[]"
        },
        {
          "internalType": "string[]",
          "name": "_tokenURIs",
          "type": "string[]"
        }
      ],
      "name": "mintAll",
      "outputs": [],
      "stateMutability": "nonpayable",
      "type": "function"
    },
    {
      "inputs": [],
      "name": "name",
      "outputs": [
        {
          "internalType": "string",
          "name": "",
          "type": "string"
        }
      ],
      "stateMutability": "view",
      "type": "function"
    },
    {
      "inputs": [],
      "name": "owner",
      "outputs": [
        {
          "internalType": "address",
          "name": "",
          "type": "address"
        }
      ],
      "stateMutability": "view",
      "type": "function"
    },
    {
      "inputs": [
        {
          "internalType": "uint256",
          "name": "tokenId",
          "type": "uint256"
        }
      ],
      "name": "ownerOf",
      "outputs": [
        {
          "internalType": "address",
          "name": "",
          "type": "address"
        }
      ],
      "stateMutability": "view",
      "type": "function"
    },
    {
      "inputs": [],
      "name": "renounceOwnership",
      "outputs": [],
      "stateMutability": "nonpayable",
      "type": "function"
    },
    {
      "inputs": [
        {
          "internalType": "address",
          "name": "from",
          "type": "address"
        },
        {
          "internalType": "address",
          "name": "to",
          "type": "address"
        },
        {
          "internalType": "uint256",
          "name": "tokenId",
          "type": "uint256"
        }
      ],
      "name": "safeTransferFrom",
      "outputs": [],
      "stateMutability": "nonpayable",
      "type": "function"
    },
    {
      "inputs": [
        {
          "internalType": "address",
          "name": "from",
          "type": "address"
        },
        {
          "internalType": "address",
          "name": "to",
          "type": "address"
        },
        {
          "internalType": "uint256",
          "name": "tokenId",
          "type": "uint256"
        },
        {
          "internalType": "bytes",
          "name": "_data",
          "type": "bytes"
        }
      ],
      "name": "safeTransferFrom",
      "outputs": [],
      "stateMutability": "nonpayable",
      "type": "function"
    },
    {
      "inputs": [
        {
          "internalType": "address",
          "name": "operator",
          "type": "address"
        },
        {
          "internalType": "bool",
          "name": "approved",
          "type": "bool"
        }
      ],
      "name": "setApprovalForAll",
      "outputs": [],
      "stateMutability": "nonpayable",
      "type": "function"
    },
    {
      "inputs": [
        {
          "internalType": "address",
          "name": "_marketAddress",
          "type": "address"
        }
      ],
      "name": "setMarketPlaceAddress",
      "outputs": [],
      "stateMutability": "nonpayable",
      "type": "function"
    },
    {
      "inputs": [
        {
          "internalType": "bytes4",
          "name": "interfaceId",
          "type": "bytes4"
        }
      ],
      "name": "supportsInterface",
      "outputs": [
        {
          "internalType": "bool",
          "name": "",
          "type": "bool"
        }
      ],
      "stateMutability": "view",
      "type": "function"
    },
    {
      "inputs": [],
      "name": "symbol",
      "outputs": [
        {
          "internalType": "string",
          "name": "",
          "type": "string"
        }
      ],
      "stateMutability": "view",
      "type": "function"
    },
    {
      "inputs": [
        {
          "internalType": "uint256",
          "name": "tokenId",
          "type": "uint256"
        }
      ],
      "name": "tokenURI",
      "outputs": [
        {
          "internalType": "string",
          "name": "",
          "type": "string"
        }
      ],
      "stateMutability": "view",
      "type": "function"
    },
    {
      "inputs": [
        {
          "internalType": "address",
          "name": "from",
          "type": "address"
        },
        {
          "internalType": "address",
          "name": "to",
          "type": "address"
        },
        {
          "internalType": "uint256",
          "name": "tokenId",
          "type": "uint256"
        }
      ],
      "name": "transferFrom",
      "outputs": [],
      "stateMutability": "nonpayable",
      "type": "function"
    },
    {
      "inputs": [
        {
          "internalType": "address",
          "name": "newOwner",
          "type": "address"
        }
      ],
      "name": "transferOwnership",
      "outputs": [],
      "stateMutability": "nonpayable",
      "type": "function"
    }
  ],
  "bytecode": "0x60806040523480156200001157600080fd5b50604080518082018252600d81526c10dc9e5c1d1bcd4c8e08139195609a1b60208083019182528351808501909452600c84526b10dc9e5c1d1bcd4c8e13919560a21b9084015281519192916200006b91600091620000fa565b50805162000081906001906020840190620000fa565b5050506200009e62000098620000a460201b60201c565b620000a8565b620001dd565b3390565b600780546001600160a01b038381166001600160a01b0319831681179093556040519116919082907f8be0079c531659141344cd1fd0a4f28419497f9722a3daafe3b4186f6b6457e090600090a35050565b8280546200010890620001a0565b90600052602060002090601f0160209004810192826200012c576000855562000177565b82601f106200014757805160ff191683800117855562000177565b8280016001018555821562000177579182015b82811115620001775782518255916020019190600101906200015a565b506200018592915062000189565b5090565b5b808211156200018557600081556001016200018a565b600181811c90821680620001b557607f821691505b60208210811415620001d757634e487b7160e01b600052602260045260246000fd5b50919050565b61207b80620001ed6000396000f3fe608060405234801561001057600080fd5b506004361061016c5760003560e01c8063715018a6116100cd578063c87b56dd11610081578063e67e402c11610066578063e67e402c146102db578063e985e9c5146102ee578063f2fde38b1461032a57600080fd5b8063c87b56dd146102b5578063cc98ef96146102c857600080fd5b806395d89b41116100b257806395d89b4114610287578063a22cb4651461028f578063b88d4fde146102a257600080fd5b8063715018a61461026e5780638da5cb5b1461027657600080fd5b8063391e2ee21161012457806342842e0e1161010957806342842e0e146102275780636352211e1461023a57806370a082311461024d57600080fd5b8063391e2ee2146102015780633c98bd641461021457600080fd5b8063081812fc11610155578063081812fc146101ae578063095ea7b3146101d957806323b872dd146101ee57600080fd5b806301ffc9a71461017157806306fdde0314610199575b600080fd5b61018461017f366004611d7a565b61033d565b60405190151581526020015b60405180910390f35b6101a16103da565b6040516101909190611eac565b6101c16101bc366004611db2565b61046c565b6040516001600160a01b039091168152602001610190565b6101ec6101e7366004611c74565b610506565b005b6101ec6101fc366004611b86565b610638565b6008546101c1906001600160a01b031681565b6101ec610222366004611c9d565b6106bf565b6101ec610235366004611b86565b610881565b6101c1610248366004611db2565b61089c565b61026061025b366004611b3a565b610927565b604051908152602001610190565b6101ec6109c1565b6007546001600160a01b03166101c1565b6101a1610a27565b6101ec61029d366004611c3a565b610a36565b6101ec6102b0366004611bc1565b610a45565b6101a16102c3366004611db2565b610acd565b6101ec6102d6366004611b3a565b610c60565b6101ec6102e9366004611dca565b610cdc565b6101846102fc366004611b54565b6001600160a01b03918216600090815260056020908152604080832093909416825291909152205460ff1690565b6101ec610338366004611b3a565b610d4a565b60006001600160e01b031982167f80ac58cd0000000000000000000000000000000000000000000000000000000014806103a057506001600160e01b031982167f5b5e139f00000000000000000000000000000000000000000000000000000000145b806103d457507f01ffc9a7000000000000000000000000000000000000000000000000000000006001600160e01b03198316145b92915050565b6060600080546103e990611f83565b80601f016020809104026020016040519081016040528092919081815260200182805461041590611f83565b80156104625780601f1061043757610100808354040283529160200191610462565b820191906000526020600020905b81548152906001019060200180831161044557829003601f168201915b5050505050905090565b6000818152600260205260408120546001600160a01b03166104ea5760405162461bcd60e51b815260206004820152602c60248201527f4552433732313a20617070726f76656420717565727920666f72206e6f6e657860448201526b34b9ba32b73a103a37b5b2b760a11b60648201526084015b60405180910390fd5b506000908152600460205260409020546001600160a01b031690565b60006105118261089c565b9050806001600160a01b0316836001600160a01b0316141561059b5760405162461bcd60e51b815260206004820152602160248201527f4552433732313a20617070726f76616c20746f2063757272656e74206f776e6560448201527f720000000000000000000000000000000000000000000000000000000000000060648201526084016104e1565b336001600160a01b03821614806105b757506105b781336102fc565b6106295760405162461bcd60e51b815260206004820152603860248201527f4552433732313a20617070726f76652063616c6c6572206973206e6f74206f7760448201527f6e6572206e6f7220617070726f76656420666f7220616c6c000000000000000060648201526084016104e1565b6106338383610e2c565b505050565b6106423382610e9a565b6106b45760405162461bcd60e51b815260206004820152603160248201527f4552433732313a207472616e736665722063616c6c6572206973206e6f74206f60448201527f776e6572206e6f7220617070726f76656400000000000000000000000000000060648201526084016104e1565b610633838383610f8d565b6007546001600160a01b031633146107195760405162461bcd60e51b815260206004820181905260248201527f4f776e61626c653a2063616c6c6572206973206e6f7420746865206f776e657260448201526064016104e1565b815183511461077b5760405162461bcd60e51b815260206004820152602860248201527f746f6b656e49447320616e642063726561746f727320617265206e6f74206d696044820152671cdb585d18da195960c21b60648201526084016104e1565b80518351146107dd5760405162461bcd60e51b815260206004820152602860248201527f746f6b656e49447320616e6420746f6b656e55524920617265206e6f74206d696044820152671cdb585d18da195960c21b60648201526084016104e1565b60005b835181101561087b5761086984828151811061080c57634e487b7160e01b600052603260045260246000fd5b602002602001015184838151811061083457634e487b7160e01b600052603260045260246000fd5b602002602001015184848151811061085c57634e487b7160e01b600052603260045260246000fd5b6020026020010151610cdc565b8061087381611fbe565b9150506107e0565b50505050565b61063383838360405180602001604052806000815250610a45565b6000818152600260205260408120546001600160a01b0316806103d45760405162461bcd60e51b815260206004820152602960248201527f4552433732313a206f776e657220717565727920666f72206e6f6e657869737460448201527f656e7420746f6b656e000000000000000000000000000000000000000000000060648201526084016104e1565b60006001600160a01b0382166109a55760405162461bcd60e51b815260206004820152602a60248201527f4552433732313a2062616c616e636520717565727920666f7220746865207a6560448201527f726f20616464726573730000000000000000000000000000000000000000000060648201526084016104e1565b506001600160a01b031660009081526003602052604090205490565b6007546001600160a01b03163314610a1b5760405162461bcd60e51b815260206004820181905260248201527f4f776e61626c653a2063616c6c6572206973206e6f7420746865206f776e657260448201526064016104e1565b610a25600061115a565b565b6060600180546103e990611f83565b610a413383836111ac565b5050565b610a4f3383610e9a565b610ac15760405162461bcd60e51b815260206004820152603160248201527f4552433732313a207472616e736665722063616c6c6572206973206e6f74206f60448201527f776e6572206e6f7220617070726f76656400000000000000000000000000000060648201526084016104e1565b61087b8484848461127b565b6000818152600260205260409020546060906001600160a01b0316610b5a5760405162461bcd60e51b815260206004820152603160248201527f45524337323155524953746f726167653a2055524920717565727920666f722060448201527f6e6f6e6578697374656e7420746f6b656e00000000000000000000000000000060648201526084016104e1565b60008281526006602052604081208054610b7390611f83565b80601f0160208091040260200160405190810160405280929190818152602001828054610b9f90611f83565b8015610bec5780601f10610bc157610100808354040283529160200191610bec565b820191906000526020600020905b815481529060010190602001808311610bcf57829003601f168201915b505050505090506000610c0a60408051602081019091526000815290565b9050805160001415610c1d575092915050565b815115610c4f578082604051602001610c37929190611e41565b60405160208183030381529060405292505050919050565b610c58846112f9565b949350505050565b6007546001600160a01b03163314610cba5760405162461bcd60e51b815260206004820181905260248201527f4f776e61626c653a2063616c6c6572206973206e6f7420746865206f776e657260448201526064016104e1565b600880546001600160a01b0319166001600160a01b0392909216919091179055565b6008546001600160a01b03163314610d365760405162461bcd60e51b815260206004820152601b60248201527f43616c6c657220646f6573206e6f74206d61726b6574706c616365000000000060448201526064016104e1565b610d4082846113ef565b6106338382611409565b6007546001600160a01b03163314610da45760405162461bcd60e51b815260206004820181905260248201527f4f776e61626c653a2063616c6c6572206973206e6f7420746865206f776e657260448201526064016104e1565b6001600160a01b038116610e205760405162461bcd60e51b815260206004820152602660248201527f4f776e61626c653a206e6577206f776e657220697320746865207a65726f206160448201527f646472657373000000000000000000000000000000000000000000000000000060648201526084016104e1565b610e298161115a565b50565b600081815260046020526040902080546001600160a01b0319166001600160a01b0384169081179091558190610e618261089c565b6001600160a01b03167f8c5be1e5ebec7d5bd14f71427d1e84f3dd0314c0f7b2291e5b200ac8c7c3b92560405160405180910390a45050565b6000818152600260205260408120546001600160a01b0316610f135760405162461bcd60e51b815260206004820152602c60248201527f4552433732313a206f70657261746f7220717565727920666f72206e6f6e657860448201526b34b9ba32b73a103a37b5b2b760a11b60648201526084016104e1565b6000610f1e8361089c565b9050806001600160a01b0316846001600160a01b03161480610f595750836001600160a01b0316610f4e8461046c565b6001600160a01b0316145b80610c5857506001600160a01b0380821660009081526005602090815260408083209388168352929052205460ff16610c58565b826001600160a01b0316610fa08261089c565b6001600160a01b03161461101c5760405162461bcd60e51b815260206004820152602960248201527f4552433732313a207472616e73666572206f6620746f6b656e2074686174206960448201527f73206e6f74206f776e000000000000000000000000000000000000000000000060648201526084016104e1565b6001600160a01b0382166110975760405162461bcd60e51b8152602060048201526024808201527f4552433732313a207472616e7366657220746f20746865207a65726f2061646460448201527f726573730000000000000000000000000000000000000000000000000000000060648201526084016104e1565b6110a2600082610e2c565b6001600160a01b03831660009081526003602052604081208054600192906110cb908490611f40565b90915550506001600160a01b03821660009081526003602052604081208054600192906110f9908490611f14565b909155505060008181526002602052604080822080546001600160a01b0319166001600160a01b0386811691821790925591518493918716917fddf252ad1be2c89b69c2b068fc378daa952ba7f163c4a11628f55a4df523b3ef91a4505050565b600780546001600160a01b038381166001600160a01b0319831681179093556040519116919082907f8be0079c531659141344cd1fd0a4f28419497f9722a3daafe3b4186f6b6457e090600090a35050565b816001600160a01b0316836001600160a01b0316141561120e5760405162461bcd60e51b815260206004820152601960248201527f4552433732313a20617070726f766520746f2063616c6c65720000000000000060448201526064016104e1565b6001600160a01b03838116600081815260056020908152604080832094871680845294825291829020805460ff191686151590811790915591519182527f17307eab39ab6107e8899845ad3d59bd9653f200f220920489ca2b5937696c31910160405180910390a3505050565b611286848484610f8d565b611292848484846114b2565b61087b5760405162461bcd60e51b815260206004820152603260248201527f4552433732313a207472616e7366657220746f206e6f6e20455243373231526560448201527131b2b4bb32b91034b6b83632b6b2b73a32b960711b60648201526084016104e1565b6000818152600260205260409020546060906001600160a01b03166113865760405162461bcd60e51b815260206004820152602f60248201527f4552433732314d657461646174613a2055524920717565727920666f72206e6f60448201527f6e6578697374656e7420746f6b656e000000000000000000000000000000000060648201526084016104e1565b600061139d60408051602081019091526000815290565b905060008151116113bd57604051806020016040528060008152506113e8565b806113c78461160a565b6040516020016113d8929190611e41565b6040516020818303038152906040525b9392505050565b610a41828260405180602001604052806000815250611758565b6000828152600260205260409020546001600160a01b03166114935760405162461bcd60e51b815260206004820152602e60248201527f45524337323155524953746f726167653a2055524920736574206f66206e6f6e60448201527f6578697374656e7420746f6b656e00000000000000000000000000000000000060648201526084016104e1565b6000828152600660209081526040909120825161063392840190611918565b60006001600160a01b0384163b156115ff57604051630a85bd0160e11b81526001600160a01b0385169063150b7a02906114f6903390899088908890600401611e70565b602060405180830381600087803b15801561151057600080fd5b505af1925050508015611540575060408051601f3d908101601f1916820190925261153d91810190611d96565b60015b6115e5573d80801561156e576040519150601f19603f3d011682016040523d82523d6000602084013e611573565b606091505b5080516115dd5760405162461bcd60e51b815260206004820152603260248201527f4552433732313a207472616e7366657220746f206e6f6e20455243373231526560448201527131b2b4bb32b91034b6b83632b6b2b73a32b960711b60648201526084016104e1565b805181602001fd5b6001600160e01b031916630a85bd0160e11b149050610c58565b506001949350505050565b60608161164a57505060408051808201909152600181527f3000000000000000000000000000000000000000000000000000000000000000602082015290565b8160005b8115611674578061165e81611fbe565b915061166d9050600a83611f2c565b915061164e565b60008167ffffffffffffffff81111561169d57634e487b7160e01b600052604160045260246000fd5b6040519080825280601f01601f1916602001820160405280156116c7576020820181803683370190505b5090505b8415610c58576116dc600183611f40565b91506116e9600a86611fd9565b6116f4906030611f14565b60f81b81838151811061171757634e487b7160e01b600052603260045260246000fd5b60200101907effffffffffffffffffffffffffffffffffffffffffffffffffffffffffffff1916908160001a905350611751600a86611f2c565b94506116cb565b61176283836117d6565b61176f60008484846114b2565b6106335760405162461bcd60e51b815260206004820152603260248201527f4552433732313a207472616e7366657220746f206e6f6e20455243373231526560448201527131b2b4bb32b91034b6b83632b6b2b73a32b960711b60648201526084016104e1565b6001600160a01b03821661182c5760405162461bcd60e51b815260206004820181905260248201527f4552433732313a206d696e7420746f20746865207a65726f206164647265737360448201526064016104e1565b6000818152600260205260409020546001600160a01b0316156118915760405162461bcd60e51b815260206004820152601c60248201527f4552433732313a20746f6b656e20616c7265616479206d696e7465640000000060448201526064016104e1565b6001600160a01b03821660009081526003602052604081208054600192906118ba908490611f14565b909155505060008181526002602052604080822080546001600160a01b0319166001600160a01b03861690811790915590518392907fddf252ad1be2c89b69c2b068fc378daa952ba7f163c4a11628f55a4df523b3ef908290a45050565b82805461192490611f83565b90600052602060002090601f016020900481019282611946576000855561198c565b82601f1061195f57805160ff191683800117855561198c565b8280016001018555821561198c579182015b8281111561198c578251825591602001919060010190611971565b5061199892915061199c565b5090565b5b80821115611998576000815560010161199d565b600067ffffffffffffffff8311156119cb576119cb612019565b6119de601f8401601f1916602001611ebf565b90508281528383830111156119f257600080fd5b828260208301376000602084830101529392505050565b80356001600160a01b0381168114611a2057600080fd5b919050565b600082601f830112611a35578081fd5b81356020611a4a611a4583611ef0565b611ebf565b80838252828201915082860187848660051b8901011115611a69578586fd5b855b85811015611a8e57611a7c82611a09565b84529284019290840190600101611a6b565b5090979650505050505050565b600082601f830112611aab578081fd5b81356020611abb611a4583611ef0565b80838252828201915082860187848660051b8901011115611ada578586fd5b855b85811015611a8e57813567ffffffffffffffff811115611afa578788fd5b611b088a87838c0101611b1b565b8552509284019290840190600101611adc565b600082601f830112611b2b578081fd5b6113e8838335602085016119b1565b600060208284031215611b4b578081fd5b6113e882611a09565b60008060408385031215611b66578081fd5b611b6f83611a09565b9150611b7d60208401611a09565b90509250929050565b600080600060608486031215611b9a578081fd5b611ba384611a09565b9250611bb160208501611a09565b9150604084013590509250925092565b60008060008060808587031215611bd6578081fd5b611bdf85611a09565b9350611bed60208601611a09565b925060408501359150606085013567ffffffffffffffff811115611c0f578182fd5b8501601f81018713611c1f578182fd5b611c2e878235602084016119b1565b91505092959194509250565b60008060408385031215611c4c578182fd5b611c5583611a09565b915060208301358015158114611c69578182fd5b809150509250929050565b60008060408385031215611c86578182fd5b611c8f83611a09565b946020939093013593505050565b600080600060608486031215611cb1578283fd5b833567ffffffffffffffff80821115611cc8578485fd5b818601915086601f830112611cdb578485fd5b81356020611ceb611a4583611ef0565b8083825282820191508286018b848660051b8901011115611d0a57898afd5b8996505b84871015611d2c578035835260019690960195918301918301611d0e565b5097505087013592505080821115611d42578384fd5b611d4e87838801611a25565b93506040860135915080821115611d63578283fd5b50611d7086828701611a9b565b9150509250925092565b600060208284031215611d8b578081fd5b81356113e88161202f565b600060208284031215611da7578081fd5b81516113e88161202f565b600060208284031215611dc3578081fd5b5035919050565b600080600060608486031215611dde578081fd5b83359250611dee60208501611a09565b9150604084013567ffffffffffffffff811115611e09578182fd5b611d7086828701611b1b565b60008151808452611e2d816020860160208601611f57565b601f01601f19169290920160200192915050565b60008351611e53818460208801611f57565b835190830190611e67818360208801611f57565b01949350505050565b60006001600160a01b03808716835280861660208401525083604083015260806060830152611ea26080830184611e15565b9695505050505050565b6020815260006113e86020830184611e15565b604051601f8201601f1916810167ffffffffffffffff81118282101715611ee857611ee8612019565b604052919050565b600067ffffffffffffffff821115611f0a57611f0a612019565b5060051b60200190565b60008219821115611f2757611f27611fed565b500190565b600082611f3b57611f3b612003565b500490565b600082821015611f5257611f52611fed565b500390565b60005b83811015611f72578181015183820152602001611f5a565b8381111561087b5750506000910152565b600181811c90821680611f9757607f821691505b60208210811415611fb857634e487b7160e01b600052602260045260246000fd5b50919050565b6000600019821415611fd257611fd2611fed565b5060010190565b600082611fe857611fe8612003565b500690565b634e487b7160e01b600052601160045260246000fd5b634e487b7160e01b600052601260045260246000fd5b634e487b7160e01b600052604160045260246000fd5b6001600160e01b031981168114610e2957600080fdfea2646970667358221220a9d81e458c2db5f48c20f826140e14bd39aaf3bfd6c6b73cc880d2fa3fcc811564736f6c63430008040033",
  "linkReferences": {},
  "deployedLinkReferences": {}
}