{
  "_format": "hh-sol-artifact-1",
  "contractName": "Crypto528Marketplace",
  "sourceName": "contracts/Marketplace.sol",
  "abi": [
    {
      "inputs": [
        {
          "internalType": "address",
          "name": "nftContract_",
          "type": "address"
        },
        {
          "internalType": "address",
          "name": "WETHAddress_",
          "type": "address"
        },
        {
          "internalType": "address",
          "name": "adminRecoveryAddress_",
          "type": "address"
        },
        {
          "internalType": "address",
          "name": "USDCTokenAddress_",
          "type": "address"
        },
        {
          "internalType": "address",
          "name": "USDTTokenAddress_",
          "type": "address"
        }
      ],
      "stateMutability": "nonpayable",
      "type": "constructor"
    },
    {
      "anonymous": false,
      "inputs": [
        {
          "indexed": true,
          "internalType": "uint256",
          "name": "tokenId",
          "type": "uint256"
        },
        {
          "indexed": false,
          "internalType": "address",
          "name": "nftContractAddress",
          "type": "address"
        },
        {
          "indexed": false,
          "internalType": "address",
          "name": "sender",
          "type": "address"
        },
        {
          "indexed": false,
          "internalType": "uint256",
          "name": "value",
          "type": "uint256"
        }
      ],
      "name": "AuctionBid",
      "type": "event"
    },
    {
      "anonymous": false,
      "inputs": [
        {
          "indexed": true,
          "internalType": "uint256",
          "name": "tokenId",
          "type": "uint256"
        },
        {
          "indexed": false,
          "internalType": "address",
          "name": "nftContractAddress",
          "type": "address"
        },
        {
          "indexed": false,
          "internalType": "address",
          "name": "Creator",
          "type": "address"
        }
      ],
      "name": "AuctionCanceled",
      "type": "event"
    },
    {
      "anonymous": false,
      "inputs": [
        {
          "indexed": true,
          "internalType": "uint256",
          "name": "tokenId",
          "type": "uint256"
        },
        {
          "indexed": false,
          "internalType": "uint256",
          "name": "auctionStart",
          "type": "uint256"
        },
        {
          "indexed": false,
          "internalType": "uint256",
          "name": "duration",
          "type": "uint256"
        },
        {
          "indexed": false,
          "internalType": "uint256",
          "name": "reservePrice",
          "type": "uint256"
        },
        {
          "indexed": false,
          "internalType": "string",
          "name": "paymentType",
          "type": "string"
        },
        {
          "indexed": false,
          "internalType": "address",
          "name": "Creator",
          "type": "address"
        }
      ],
      "name": "AuctionCreated",
      "type": "event"
    },
    {
      "anonymous": false,
      "inputs": [
        {
          "indexed": true,
          "internalType": "uint256",
          "name": "tokenId",
          "type": "uint256"
        },
        {
          "indexed": false,
          "internalType": "address",
          "name": "nftContractAddress",
          "type": "address"
        },
        {
          "indexed": false,
          "internalType": "address",
          "name": "Creator",
          "type": "address"
        },
        {
          "indexed": false,
          "internalType": "address",
          "name": "winner",
          "type": "address"
        },
        {
          "indexed": false,
          "internalType": "uint256",
          "name": "amount",
          "type": "uint256"
        }
      ],
      "name": "AuctionEnded",
      "type": "event"
    },
    {
      "anonymous": false,
      "inputs": [
        {
          "indexed": false,
          "internalType": "uint256",
          "name": "nftID",
          "type": "uint256"
        }
      ],
      "name": "Burned",
      "type": "event"
    },
    {
      "anonymous": false,
      "inputs": [
        {
          "indexed": true,
          "internalType": "uint256",
          "name": "tokenId",
          "type": "uint256"
        },
        {
          "indexed": false,
          "internalType": "address",
          "name": "Creator",
          "type": "address"
        },
        {
          "indexed": false,
          "internalType": "uint256",
          "name": "amount",
          "type": "uint256"
        }
      ],
      "name": "CreatorFeePercentTransfer",
      "type": "event"
    },
    {
      "anonymous": false,
      "inputs": [
        {
          "indexed": true,
          "internalType": "address",
          "name": "sender",
          "type": "address"
        },
        {
          "indexed": true,
          "internalType": "address",
          "name": "receiver",
          "type": "address"
        },
        {
          "indexed": false,
          "internalType": "uint256",
          "name": "tokenId",
          "type": "uint256"
        }
      ],
      "name": "Giveaway",
      "type": "event"
    },
    {
      "anonymous": false,
      "inputs": [
        {
          "indexed": true,
          "internalType": "address",
          "name": "minter",
          "type": "address"
        },
        {
          "indexed": false,
          "internalType": "uint256",
          "name": "price",
          "type": "uint256"
        },
        {
          "indexed": false,
          "internalType": "string",
          "name": "currencyType",
          "type": "string"
        },
        {
          "indexed": false,
          "internalType": "uint256",
          "name": "nftID",
          "type": "uint256"
        },
        {
          "indexed": false,
          "internalType": "string",
          "name": "uri",
          "type": "string"
        },
        {
          "indexed": false,
          "internalType": "bool",
          "name": "status",
          "type": "bool"
        }
      ],
      "name": "Minted",
      "type": "event"
    },
    {
      "anonymous": false,
      "inputs": [
        {
          "indexed": true,
          "internalType": "address",
          "name": "owner",
          "type": "address"
        },
        {
          "indexed": false,
          "internalType": "uint256",
          "name": "nftID",
          "type": "uint256"
        },
        {
          "indexed": false,
          "internalType": "bool",
          "name": "isListed",
          "type": "bool"
        }
      ],
      "name": "NftListStatus",
      "type": "event"
    },
    {
      "anonymous": false,
      "inputs": [
        {
          "indexed": true,
          "internalType": "address",
          "name": "previousOwner",
          "type": "address"
        },
        {
          "indexed": true,
          "internalType": "address",
          "name": "newOwner",
          "type": "address"
        }
      ],
      "name": "OwnershipTransferred",
      "type": "event"
    },
    {
      "anonymous": false,
      "inputs": [
        {
          "indexed": false,
          "internalType": "address",
          "name": "account",
          "type": "address"
        }
      ],
      "name": "Paused",
      "type": "event"
    },
    {
      "anonymous": false,
      "inputs": [
        {
          "indexed": true,
          "internalType": "address",
          "name": "owner",
          "type": "address"
        },
        {
          "indexed": false,
          "internalType": "uint256",
          "name": "oldPrice",
          "type": "uint256"
        },
        {
          "indexed": false,
          "internalType": "uint256",
          "name": "newPrice",
          "type": "uint256"
        },
        {
          "indexed": false,
          "internalType": "uint256",
          "name": "nftID",
          "type": "uint256"
        }
      ],
      "name": "PriceUpdate",
      "type": "event"
    },
    {
      "anonymous": false,
      "inputs": [
        {
          "indexed": true,
          "internalType": "address",
          "name": "previousOwner",
          "type": "address"
        },
        {
          "indexed": true,
          "internalType": "address",
          "name": "newOwner",
          "type": "address"
        },
        {
          "indexed": false,
          "internalType": "uint256",
          "name": "price",
          "type": "uint256"
        },
        {
          "indexed": false,
          "internalType": "uint256",
          "name": "nftID",
          "type": "uint256"
        }
      ],
      "name": "Purchase",
      "type": "event"
    },
    {
      "anonymous": false,
      "inputs": [
        {
          "indexed": false,
          "internalType": "address",
          "name": "",
          "type": "address"
        },
        {
          "indexed": false,
          "internalType": "uint256",
          "name": "",
          "type": "uint256"
        }
      ],
      "name": "Received",
      "type": "event"
    },
    {
      "anonymous": false,
      "inputs": [
        {
          "indexed": false,
          "internalType": "uint256",
          "name": "amount",
          "type": "uint256"
        },
        {
          "indexed": false,
          "internalType": "address",
          "name": "wallet",
          "type": "address"
        }
      ],
      "name": "TokensWithdrawn",
      "type": "event"
    },
    {
      "anonymous": false,
      "inputs": [
        {
          "indexed": false,
          "internalType": "address",
          "name": "account",
          "type": "address"
        }
      ],
      "name": "Unpaused",
      "type": "event"
    },
    {
      "anonymous": false,
      "inputs": [
        {
          "indexed": false,
          "internalType": "uint256",
          "name": "amount",
          "type": "uint256"
        },
        {
          "indexed": false,
          "internalType": "address",
          "name": "wallet",
          "type": "address"
        }
      ],
      "name": "Withdrawn",
      "type": "event"
    },
    {
      "inputs": [],
      "name": "MAX_LIMIT",
      "outputs": [
        {
          "internalType": "uint256",
          "name": "",
          "type": "uint256"
        }
      ],
      "stateMutability": "view",
      "type": "function"
    },
    {
      "inputs": [],
      "name": "MIN_BID_INCREMENT_PERCENT",
      "outputs": [
        {
          "internalType": "uint8",
          "name": "",
          "type": "uint8"
        }
      ],
      "stateMutability": "view",
      "type": "function"
    },
    {
      "inputs": [],
      "name": "TIME_BUFFER",
      "outputs": [
        {
          "internalType": "uint16",
          "name": "",
          "type": "uint16"
        }
      ],
      "stateMutability": "view",
      "type": "function"
    },
    {
      "inputs": [],
      "name": "WETHAddress",
      "outputs": [
        {
          "internalType": "address",
          "name": "",
          "type": "address"
        }
      ],
      "stateMutability": "view",
      "type": "function"
    },
    {
      "inputs": [],
      "name": "adminRecoveryAddress",
      "outputs": [
        {
          "internalType": "address",
          "name": "",
          "type": "address"
        }
      ],
      "stateMutability": "view",
      "type": "function"
    },
    {
      "inputs": [],
      "name": "adminRecoveryEnabled",
      "outputs": [
        {
          "internalType": "bool",
          "name": "",
          "type": "bool"
        }
      ],
      "stateMutability": "view",
      "type": "function"
    },
    {
      "inputs": [
        {
          "internalType": "uint256",
          "name": "",
          "type": "uint256"
        }
      ],
      "name": "auctions",
      "outputs": [
        {
          "internalType": "uint256",
          "name": "amount",
          "type": "uint256"
        },
        {
          "internalType": "uint256",
          "name": "duration",
          "type": "uint256"
        },
        {
          "internalType": "uint256",
          "name": "firstBidTime",
          "type": "uint256"
        },
        {
          "internalType": "uint256",
          "name": "reservePrice",
          "type": "uint256"
        },
        {
          "internalType": "string",
          "name": "paymentType",
          "type": "string"
        },
        {
          "internalType": "uint8",
          "name": "CreatorFeePercent",
          "type": "uint8"
        },
        {
          "internalType": "address",
          "name": "Creator",
          "type": "address"
        },
        {
          "internalType": "address payable",
          "name": "bidder",
          "type": "address"
        },
        {
          "internalType": "address payable",
          "name": "fundsRecipient",
          "type": "address"
        }
      ],
      "stateMutability": "view",
      "type": "function"
    },
    {
      "inputs": [
        {
          "internalType": "uint256",
          "name": "_id",
          "type": "uint256"
        },
        {
          "internalType": "uint256",
          "name": "_price",
          "type": "uint256"
        },
        {
          "internalType": "string",
          "name": "paymentType",
          "type": "string"
        }
      ],
      "name": "buy",
      "outputs": [],
      "stateMutability": "payable",
      "type": "function"
    },
    {
      "inputs": [
        {
          "internalType": "uint256",
          "name": "tokenId",
          "type": "uint256"
        }
      ],
      "name": "cancelAuction",
      "outputs": [],
      "stateMutability": "nonpayable",
      "type": "function"
    },
    {
      "inputs": [
        {
          "internalType": "uint256",
          "name": "_id",
          "type": "uint256"
        }
      ],
      "name": "closeTrade",
      "outputs": [],
      "stateMutability": "nonpayable",
      "type": "function"
    },
    {
      "inputs": [
        {
          "internalType": "uint256",
          "name": "tokenId",
          "type": "uint256"
        },
        {
          "internalType": "uint256",
          "name": "startDate",
          "type": "uint256"
        },
        {
          "internalType": "uint256",
          "name": "duration",
          "type": "uint256"
        },
        {
          "internalType": "uint256",
          "name": "reservePrice",
          "type": "uint256"
        },
        {
          "internalType": "string",
          "name": "paymentType",
          "type": "string"
        }
      ],
      "name": "createAuction",
      "outputs": [],
      "stateMutability": "nonpayable",
      "type": "function"
    },
    {
      "inputs": [
        {
          "internalType": "uint256",
          "name": "tokenId",
          "type": "uint256"
        },
        {
          "internalType": "string",
          "name": "paymentType",
          "type": "string"
        },
        {
          "internalType": "uint256",
          "name": "amount",
          "type": "uint256"
        }
      ],
      "name": "createBid",
      "outputs": [],
      "stateMutability": "payable",
      "type": "function"
    },
    {
      "inputs": [
        {
          "internalType": "uint256",
          "name": "tokenId",
          "type": "uint256"
        }
      ],
      "name": "endAuction",
      "outputs": [],
      "stateMutability": "nonpayable",
      "type": "function"
    },
    {
      "inputs": [],
      "name": "getVersion",
      "outputs": [
        {
          "internalType": "uint256",
          "name": "version",
          "type": "uint256"
        }
      ],
      "stateMutability": "pure",
      "type": "function"
    },
    {
      "inputs": [
        {
          "internalType": "address",
          "name": "_to",
          "type": "address"
        },
        {
          "internalType": "uint256",
          "name": "_tokenId",
          "type": "uint256"
        },
        {
          "internalType": "string",
          "name": "paymentType",
          "type": "string"
        },
        {
          "internalType": "string",
          "name": "_tokenUri",
          "type": "string"
        }
      ],
      "name": "giveaway",
      "outputs": [],
      "stateMutability": "nonpayable",
      "type": "function"
    },
    {
      "inputs": [
        {
          "internalType": "uint256",
          "name": "",
          "type": "uint256"
        }
      ],
      "name": "levelCounter",
      "outputs": [
        {
          "internalType": "uint256",
          "name": "",
          "type": "uint256"
        }
      ],
      "stateMutability": "view",
      "type": "function"
    },
    {
      "inputs": [
        {
          "internalType": "uint256",
          "name": "",
          "type": "uint256"
        }
      ],
      "name": "levelETHPrices",
      "outputs": [
        {
          "internalType": "uint256",
          "name": "",
          "type": "uint256"
        }
      ],
      "stateMutability": "view",
      "type": "function"
    },
    {
      "inputs": [
        {
          "internalType": "uint256",
          "name": "",
          "type": "uint256"
        }
      ],
      "name": "levelMap",
      "outputs": [
        {
          "internalType": "uint256",
          "name": "",
          "type": "uint256"
        }
      ],
      "stateMutability": "view",
      "type": "function"
    },
    {
      "inputs": [
        {
          "internalType": "uint256",
          "name": "",
          "type": "uint256"
        }
      ],
      "name": "levelPrices",
      "outputs": [
        {
          "internalType": "uint256",
          "name": "",
          "type": "uint256"
        }
      ],
      "stateMutability": "view",
      "type": "function"
    },
    {
      "inputs": [
        {
          "internalType": "uint256",
          "name": "",
          "type": "uint256"
        }
      ],
      "name": "listedMap",
      "outputs": [
        {
          "internalType": "bool",
          "name": "",
          "type": "bool"
        }
      ],
      "stateMutability": "view",
      "type": "function"
    },
    {
      "inputs": [],
      "name": "marketFeeForETH",
      "outputs": [
        {
          "internalType": "uint256",
          "name": "",
          "type": "uint256"
        }
      ],
      "stateMutability": "view",
      "type": "function"
    },
    {
      "inputs": [],
      "name": "marketFeeForToken",
      "outputs": [
        {
          "internalType": "uint256",
          "name": "",
          "type": "uint256"
        }
      ],
      "stateMutability": "view",
      "type": "function"
    },
    {
      "inputs": [
        {
          "internalType": "uint256",
          "name": "_level",
          "type": "uint256"
        },
        {
          "internalType": "uint256",
          "name": "_tokenId",
          "type": "uint256"
        },
        {
          "internalType": "string",
          "name": "paymentType",
          "type": "string"
        },
        {
          "internalType": "string",
          "name": "_tokenUri",
          "type": "string"
        }
      ],
      "name": "mint",
      "outputs": [],
      "stateMutability": "payable",
      "type": "function"
    },
    {
      "inputs": [],
      "name": "nftContract",
      "outputs": [
        {
          "internalType": "address",
          "name": "",
          "type": "address"
        }
      ],
      "stateMutability": "view",
      "type": "function"
    },
    {
      "inputs": [
        {
          "internalType": "uint256",
          "name": "_id",
          "type": "uint256"
        },
        {
          "internalType": "uint256",
          "name": "_price",
          "type": "uint256"
        },
        {
          "internalType": "string",
          "name": "paymentType",
          "type": "string"
        }
      ],
      "name": "openTrade",
      "outputs": [],
      "stateMutability": "nonpayable",
      "type": "function"
    },
    {
      "inputs": [],
      "name": "owner",
      "outputs": [
        {
          "internalType": "address",
          "name": "",
          "type": "address"
        }
      ],
      "stateMutability": "view",
      "type": "function"
    },
    {
      "inputs": [
        {
          "internalType": "uint256",
          "name": "",
          "type": "uint256"
        }
      ],
      "name": "ownerMap",
      "outputs": [
        {
          "internalType": "address",
          "name": "",
          "type": "address"
        }
      ],
      "stateMutability": "view",
      "type": "function"
    },
    {
      "inputs": [],
      "name": "pauseContract",
      "outputs": [],
      "stateMutability": "nonpayable",
      "type": "function"
    },
    {
      "inputs": [],
      "name": "paused",
      "outputs": [
        {
          "internalType": "bool",
          "name": "",
          "type": "bool"
        }
      ],
      "stateMutability": "view",
      "type": "function"
    },
    {
      "inputs": [
        {
          "internalType": "uint256",
          "name": "",
          "type": "uint256"
        }
      ],
      "name": "paymentTokenMap",
      "outputs": [
        {
          "internalType": "string",
          "name": "",
          "type": "string"
        }
      ],
      "stateMutability": "view",
      "type": "function"
    },
    {
      "inputs": [
        {
          "internalType": "uint256",
          "name": "",
          "type": "uint256"
        }
      ],
      "name": "price",
      "outputs": [
        {
          "internalType": "uint256",
          "name": "",
          "type": "uint256"
        }
      ],
      "stateMutability": "view",
      "type": "function"
    },
    {
      "inputs": [
        {
          "internalType": "uint256",
          "name": "amount",
          "type": "uint256"
        }
      ],
      "name": "recoverETH",
      "outputs": [
        {
          "internalType": "bool",
          "name": "success",
          "type": "bool"
        }
      ],
      "stateMutability": "nonpayable",
      "type": "function"
    },
    {
      "inputs": [
        {
          "internalType": "uint256",
          "name": "tokenId",
          "type": "uint256"
        }
      ],
      "name": "recoverNFT",
      "outputs": [],
      "stateMutability": "nonpayable",
      "type": "function"
    },
    {
      "inputs": [],
      "name": "renounceOwnership",
      "outputs": [],
      "stateMutability": "nonpayable",
      "type": "function"
    },
    {
      "inputs": [
        {
          "internalType": "uint256",
          "name": "_newMarketFeeForETH",
          "type": "uint256"
        }
      ],
      "name": "setMarketFeeForETH",
      "outputs": [],
      "stateMutability": "nonpayable",
      "type": "function"
    },
    {
      "inputs": [
        {
          "internalType": "uint256",
          "name": "_newMarketFeeForToken",
          "type": "uint256"
        }
      ],
      "name": "setMarketFeeForToken",
      "outputs": [],
      "stateMutability": "nonpayable",
      "type": "function"
    },
    {
      "inputs": [
        {
          "internalType": "uint256",
          "name": "_maxLimit",
          "type": "uint256"
        }
      ],
      "name": "setMaxLimit",
      "outputs": [],
      "stateMutability": "nonpayable",
      "type": "function"
    },
    {
      "inputs": [
        {
          "internalType": "string",
          "name": "_paymentToken",
          "type": "string"
        },
        {
          "internalType": "address",
          "name": "_tokenAddress",
          "type": "address"
        }
      ],
      "name": "setTokenAddress",
      "outputs": [],
      "stateMutability": "nonpayable",
      "type": "function"
    },
    {
      "inputs": [
        {
          "internalType": "uint256",
          "name": "",
          "type": "uint256"
        }
      ],
      "name": "soldoutLimits",
      "outputs": [
        {
          "internalType": "uint256",
          "name": "",
          "type": "uint256"
        }
      ],
      "stateMutability": "view",
      "type": "function"
    },
    {
      "inputs": [
        {
          "internalType": "string",
          "name": "",
          "type": "string"
        }
      ],
      "name": "tokenAddressMap",
      "outputs": [
        {
          "internalType": "address",
          "name": "",
          "type": "address"
        }
      ],
      "stateMutability": "view",
      "type": "function"
    },
    {
      "inputs": [
        {
          "internalType": "address",
          "name": "newOwner",
          "type": "address"
        }
      ],
      "name": "transferOwnership",
      "outputs": [],
      "stateMutability": "nonpayable",
      "type": "function"
    },
    {
      "inputs": [],
      "name": "turnOffAdminRecovery",
      "outputs": [],
      "stateMutability": "nonpayable",
      "type": "function"
    },
    {
      "inputs": [],
      "name": "unpauseContract",
      "outputs": [],
      "stateMutability": "nonpayable",
      "type": "function"
    },
    {
      "inputs": [
        {
          "internalType": "uint256",
          "name": "_tokenId",
          "type": "uint256"
        },
        {
          "internalType": "bool",
          "name": "shouldBeListed",
          "type": "bool"
        }
      ],
      "name": "updateListingStatus",
      "outputs": [
        {
          "internalType": "bool",
          "name": "",
          "type": "bool"
        }
      ],
      "stateMutability": "nonpayable",
      "type": "function"
    },
    {
      "inputs": [
        {
          "internalType": "uint256",
          "name": "_tokenId",
          "type": "uint256"
        },
        {
          "internalType": "uint256",
          "name": "_price",
          "type": "uint256"
        },
        {
          "internalType": "string",
          "name": "paymentType",
          "type": "string"
        }
      ],
      "name": "updatePrice",
      "outputs": [
        {
          "internalType": "bool",
          "name": "",
          "type": "bool"
        }
      ],
      "stateMutability": "nonpayable",
      "type": "function"
    },
    {
      "inputs": [],
      "name": "withdraw",
      "outputs": [],
      "stateMutability": "nonpayable",
      "type": "function"
    },
    {
      "inputs": [
        {
          "internalType": "string",
          "name": "_tokenName",
          "type": "string"
        },
        {
          "internalType": "uint256",
          "name": "_amount",
          "type": "uint256"
        }
      ],
      "name": "withdrawToken",
      "outputs": [],
      "stateMutability": "nonpayable",
      "type": "function"
    },
    {
      "stateMutability": "payable",
      "type": "receive"
    }
  ],
  "bytecode": "0x6001600090815561021a600355604b600455603260055561022060405266b1a2bc2ec5000060e09081526703782dace9d90000610100526706f05b59d3b20000610120526722b1c8c1227a000061014052674563918244f4000061016052678ac7230489e80000610180526801158e460913d000006101a0526802b5e3af16b18800006101c0526101e091909152662386f26fc1000061020052620000a990600e90600a62000422565b5060408051610140810182526302faf0808152630ee6b2806020820152631dcd650091810191909152639502f900606082015264012a05f20060808201526402540be40060a08201526404a817c80060c0820181905260e08201526000610100820152620f42406101208201526200012690600f90600a6200047d565b5060408051610140810182526011815260e1602082015260c8918101919091526028606082015260146080820152600560a0820152600260c0820152600160e08201526064610100820152600a61012082018190526200018991601091620004c4565b506040805161014081018252600080825260208201819052918101829052606081018290526080810182905260a0810182905260c0810182905260e081018290526101008101829052610120810191909152620001eb90601190600a620004c4565b50348015620001f957600080fd5b50604051620054a4380380620054a48339810160408190526200021c916200053b565b6200022733620003d0565b6040516301ffc9a760e01b81526380ac58cd60e01b60048201526001600160a01b038616906301ffc9a79060240160206040518083038186803b1580156200026e57600080fd5b505afa15801562000283573d6000803e3d6000fd5b505050506040513d601f19601f82011682018060405250810190620002a99190620005aa565b620003205760405162461bcd60e51b815260206004820152603f60248201527f436f6e7472616374206174206e6674436f6e74726163745f206164647265737360448201527f20646f6573206e6f7420737570706f7274204e465420696e7465726661636500606482015260840160405180910390fd5b6001600160601b0319606086811b821660805285811b821660a05284901b1660c0526040518290600b906200035f90635553444360e01b815260040190565b9081526040805191829003602001822080546001600160a01b039485166001600160a01b031991821617909155631554d11560e21b8352600b6004840152905191829003602401909120805493909216921691909117905550506006805461ffff1916600117905550620005d39050565b600180546001600160a01b038381166001600160a01b0319831681179093556040519116919082907f8be0079c531659141344cd1fd0a4f28419497f9722a3daafe3b4186f6b6457e090600090a35050565b8280548282559060005260206000209081019282156200046b579160200282015b828111156200046b57825182906001600160481b031690559160200191906001019062000443565b506200047992915062000507565b5090565b8280548282559060005260206000209081019282156200046b579160200282015b828111156200046b578251829064ffffffffff169055916020019190600101906200049e565b8280548282559060005260206000209081019282156200046b579160200282015b828111156200046b578251829060ff16905591602001919060010190620004e5565b5b8082111562000479576000815560010162000508565b80516001600160a01b03811681146200053657600080fd5b919050565b600080600080600060a0868803121562000553578081fd5b6200055e866200051e565b94506200056e602087016200051e565b93506200057e604087016200051e565b92506200058e606087016200051e565b91506200059e608087016200051e565b90509295509295909350565b600060208284031215620005bc578081fd5b81518015158114620005cc578182fd5b9392505050565b60805160601c60a05160601c60c05160601c614db8620006ec6000396000818161098101528181611376015281816116b30152818161176201528181611c7301528181611fcf0152818161218b0152818161258f0152818161281001528181612bb601528181612fd501528181613524015281816135b501528181613b5e01528181613bf50152613d710152600081816103840152818161429e01526143330152600081816108cd015281816112740152818161179101528181611a0f01528181611aac01528181611b2f01528181612262015281816128c801528181612a9c01528181612f160152818161339401528181613448015281816137680152818161403b015281816140bf01526144860152614db86000f3fe60806040526004361061030c5760003560e01c80639486e0a41161019a578063bc8ba28f116100e1578063d56d229d1161008a578063f27da5e511610064578063f27da5e51461092f578063f2fde38b1461094f578063fafe0d1f1461096f57600080fd5b8063d56d229d146108bb578063e65de24c146108ef578063e7c3e0c81461090f57600080fd5b8063c97a413a116100bb578063c97a413a1461084e578063ca1ce2af1461086e578063d33355531461089b57600080fd5b8063bc8ba28f146107d7578063bc99681914610807578063bf8bcee41461082e57600080fd5b80639a8bfa2b11610143578063b33712c51161011d578063b33712c514610782578063b9a2de3a14610797578063bb099c45146107b757600080fd5b80639a8bfa2b1461070c578063a39cea8414610742578063ad86b5ad1461076257600080fd5b806398c055911161017457806398c05591146106d157806398e48c9f146106e657806399331fdf146106f957600080fd5b80639486e0a41461067157806396b5a7551461069157806398214bcb146106b157600080fd5b8063450658a31161025e578063715018a6116102075780638da5cb5b116101e15780638da5cb5b146105fc5780639037bab21461061a578063941d66db1461063057600080fd5b8063715018a6146105af5780637788a387146105c45780638cc5fd8c146105dc57600080fd5b806353a636dd1161023857806353a636dd1461052d578063571a26a01461055d5780635c975abb1461059257600080fd5b8063450658a3146104b757806348135df0146104e4578063536531311461050457600080fd5b806317456e56116102c05780633ccfd60b1161029a5780633ccfd60b14610477578063426ef7631461048c578063439766ce146104a257600080fd5b806317456e561461041757806326a49e371461043757806333209e651461046457600080fd5b80630d6b3378116102f15780630d6b3378146103c35780630d8e6e2c146103e3578063114cccd21461040157600080fd5b80630abeaa80146103505780630af88b241461037257600080fd5b3661034b57604080513381523460208201527f88a5966d370b9919b20f3e2c13ff65706f196a4e32cc2c12bf57088f88525874910160405180910390a1005b600080fd5b34801561035c57600080fd5b5061037061036b3660046148c1565b6109a3565b005b34801561037e57600080fd5b506103a67f000000000000000000000000000000000000000000000000000000000000000081565b6040516001600160a01b0390911681526020015b60405180910390f35b3480156103cf57600080fd5b506103706103de3660046148c1565b610a57565b3480156103ef57600080fd5b5060015b6040519081526020016103ba565b34801561040d57600080fd5b506103f360035481565b34801561042357600080fd5b5061037061043236600461482e565b610b06565b34801561044357600080fd5b506103f36104523660046148c1565b60076020526000908152604090205481565b610370610472366004614915565b610ba4565b34801561048357600080fd5b506103706112e7565b34801561049857600080fd5b506103f360045481565b3480156104ae57600080fd5b50610370611374565b3480156104c357600080fd5b506103f36104d23660046148c1565b600d6020526000908152604090205481565b3480156104f057600080fd5b506103f36104ff3660046148c1565b61144d565b34801561051057600080fd5b5061051a61038481565b60405161ffff90911681526020016103ba565b34801561053957600080fd5b5061054d610548366004614963565b61146e565b60405190151581526020016103ba565b34801561056957600080fd5b5061057d6105783660046148c1565b611557565b6040516103ba99989796959493929190614bfa565b34801561059e57600080fd5b50600654610100900460ff1661054d565b3480156105bb57600080fd5b5061037061163b565b3480156105d057600080fd5b5060065460ff1661054d565b3480156105e857600080fd5b506103f36105f73660046148c1565b6116a1565b34801561060857600080fd5b506001546001600160a01b03166103a6565b34801561062657600080fd5b506103f360055481565b34801561063c57600080fd5b506103a661064b3660046147f3565b8051602081830181018051600b825292820191909301209152546001600160a01b031681565b34801561067d57600080fd5b5061037061068c3660046148c1565b6116b1565b34801561069d57600080fd5b506103706106ac3660046148c1565b6117f0565b3480156106bd57600080fd5b5061054d6106cc3660046148f1565b611b16565b3480156106dd57600080fd5b50610370611c71565b6103706106f43660046149b1565b611d11565b610370610707366004614963565b612329565b34801561071857600080fd5b506103a66107273660046148c1565b600a602052600090815260409020546001600160a01b031681565b34801561074e57600080fd5b5061037061075d3660046148c1565b6129b1565b34801561076e57600080fd5b5061037061077d36600461475a565b612bb4565b34801561078e57600080fd5b50610370612fd3565b3480156107a357600080fd5b506103706107b23660046148c1565b6130a2565b3480156107c357600080fd5b506103f36107d23660046148c1565b6137ef565b3480156107e357600080fd5b5061054d6107f23660046148c1565b60086020526000908152604090205460ff1681565b34801561081357600080fd5b5061081c600a81565b60405160ff90911681526020016103ba565b34801561083a57600080fd5b506103706108493660046148c1565b6137ff565b34801561085a57600080fd5b5061037061086936600461487e565b6138af565b34801561087a57600080fd5b5061088e6108893660046148c1565b613ac0565b6040516103ba9190614b30565b3480156108a757600080fd5b5061054d6108b63660046148c1565b613b5a565b3480156108c757600080fd5b506103a67f000000000000000000000000000000000000000000000000000000000000000081565b3480156108fb57600080fd5b5061037061090a3660046149eb565b613c20565b34801561091b57600080fd5b506103f361092a3660046148c1565b613ead565b34801561093b57600080fd5b5061037061094a366004614963565b613ebd565b34801561095b57600080fd5b5061037061096a366004614722565b614162565b34801561097b57600080fd5b506103a67f000000000000000000000000000000000000000000000000000000000000000081565b6001546001600160a01b03163314610a025760405162461bcd60e51b815260206004820181905260248201527f4f776e61626c653a2063616c6c6572206973206e6f7420746865206f776e657260448201526064015b60405180910390fd5b60018111610a525760405162461bcd60e51b815260206004820152601960248201527f496e76616c6964204d61726b657446656520466f72204554480000000000000060448201526064016109f9565b600455565b6001546001600160a01b03163314610ab15760405162461bcd60e51b815260206004820181905260248201527f4f776e61626c653a2063616c6c6572206973206e6f7420746865206f776e657260448201526064016109f9565b60018111610b015760405162461bcd60e51b815260206004820152601b60248201527f496e76616c6964204d61726b657446656520466f7220546f6b656e000000000060448201526064016109f9565b600555565b6001546001600160a01b03163314610b605760405162461bcd60e51b815260206004820181905260248201527f4f776e61626c653a2063616c6c6572206973206e6f7420746865206f776e657260448201526064016109f9565b80600b83604051610b719190614a79565b90815260405190819003602001902080546001600160a01b03929092166001600160a01b03199092169190911790555050565b6001600080828254610bb69190614c5e565b9091555050600054600654610100900460ff1615610c0b5760405162461bcd60e51b815260206004820152601260248201527110dbdb9d1c9858dd081a5cc81c185d5cd95960721b60448201526064016109f9565b83610c348160009081526009602052604090206005015461010090046001600160a01b03161590565b15610c815760405162461bcd60e51b815260206004820152601560248201527f41756374696f6e20646f65736e2774206578697374000000000000000000000060448201526064016109f9565b60008581526009602052604090206002015485901580610ca85750610ca581614241565b42105b610cf45760405162461bcd60e51b815260206004820152600f60248201527f41756374696f6e2065787069726564000000000000000000000000000000000060448201526064016109f9565b60008411610d445760405162461bcd60e51b815260206004820152601d60248201527f416d6f756e74206d7573742062652067726561746572207468616e203000000060448201526064016109f9565b6000868152600960209081526040918290209151610d66926004019101614a95565b6040516020818303038152906040528051906020012085604051602001610d8d9190614a79565b6040516020818303038152906040528051906020012014610df05760405162461bcd60e51b815260206004820152601d60248201527f5061796d656e7454797065206973206e6f74206d69736d61746368656400000060448201526064016109f9565b6040516208aa8960eb1b60208201526023016040516020818303038152906040528051906020012085604051602001610e299190614a79565b604051602081830303815290604052805190602001201415610e9957348414610e945760405162461bcd60e51b815260206004820152601e60248201527f416d6f756e7420646f65736e277420657175616c206d73672e76616c7565000060448201526064016109f9565b610f7b565b600b85604051610ea99190614a79565b908152604051908190036020018120546370a0823160e01b82523360048301526001600160a01b0316906370a082319060240160206040518083038186803b158015610ef457600080fd5b505afa158015610f08573d6000803e3d6000fd5b505050506040513d601f19601f82011682018060405250810190610f2c91906148d9565b841015610f7b5760405162461bcd60e51b815260206004820152601a60248201527f496e73756666696369656e7420746f6b656e2062616c616e636500000000000060448201526064016109f9565b600086815260096020526040902054610ff457600086815260096020526040902060030154841015610fef5760405162461bcd60e51b815260206004820152601d60248201527f4d7573742062696420726573657276655072696365206f72206d6f726500000060448201526064016109f9565b6111e2565b6000868152600960205260409020546110349061101f9060649061101990600a614263565b90614276565b60008881526009602052604090205490614282565b8410156110a95760405162461bcd60e51b815260206004820152603f60248201527f4d75737420626964206d6f7265207468616e206c61737420626964206279204d60448201527f494e5f4249445f494e4352454d454e545f50455243454e5420616d6f756e740060648201526084016109f9565b6040516208aa8960eb1b602082015260230160405160208183030381529060405280519060200120856040516020016110e29190614a79565b60405160208183030381529060405280519060200120141561112657600086815260096020526040902060068101549054610fef916001600160a01b03169061428e565b600b856040516111369190614a79565b90815260408051602092819003830181205460008a81526009909452919092206006810154905463a9059cbb60e01b84526001600160a01b0391821660048501526024840152169063a9059cbb90604401602060405180830381600087803b1580156111a157600080fd5b505af11580156111b5573d6000803e3d6000fd5b505050506040513d601f19601f820116820180604052508101906111d991906147d7565b6111e257600080fd5b600086815260096020526040902084815560060180546001600160a01b0319163317905561121242610384614282565b61121b87614241565b10156112665761123f61122d87614241565b61123942610384614282565b906143b3565b60008781526009602052604081206001018054909190611260908490614c5e565b90915550505b604080516001600160a01b037f000000000000000000000000000000000000000000000000000000000000000016815233602082015290810185905286907f3bb6f40a8aeb5dda33c401527cd8f6bd335757d2b1ed2827f0321a090c66b8249060600160405180910390a2505060005481146112e157600080fd5b50505050565b6001546001600160a01b031633146113415760405162461bcd60e51b815260206004820181905260248201527f4f776e61626c653a2063616c6c6572206973206e6f7420746865206f776e657260448201526064016109f9565b6040514790339082156108fc029083906000818181858888f19350505050158015611370573d6000803e3d6000fd5b5050565b7f00000000000000000000000000000000000000000000000000000000000000006001600160a01b0316331480156113ae575060065460ff165b6114085760405162461bcd60e51b815260206004820152602560248201527f43616c6c657220646f6573206e6f7420686176652061646d696e2070726976696044820152646c6567657360d81b60648201526084016109f9565b6006805461ff0019166101001790556040513381527f62e78cea01bee320cd4e420270b5ea74000d11b0c9f74754ebdbfc544b05a258906020015b60405180910390a1565b600f818154811061145d57600080fd5b600091825260209091200154905081565b600083815260076020908152604080832054600a9092528220546001600160a01b031633146114df5760405162461bcd60e51b815260206004820152601c60248201527f4572726f722c20796f7520617265206e6f7420746865206f776e65720000000060448201526064016109f9565b6000858152600760209081526040808320879055600c82529091208451611508928601906145cc565b50604080518281526020810186905290810186905233907f8647dab5101cbe18afb171756e9753802f9d66725bf2346b079b8b1a275e01169060600160405180910390a2506001949350505050565b60096020526000908152604090208054600182015460028301546003840154600485018054949593949293919261158d90614cf8565b80601f01602080910402602001604051908101604052809291908181526020018280546115b990614cf8565b80156116065780601f106115db57610100808354040283529160200191611606565b820191906000526020600020905b8154815290600101906020018083116115e957829003601f168201915b50505060058401546006850154600790950154939460ff8216946001600160a01b036101009093048316945090821692501689565b6001546001600160a01b031633146116955760405162461bcd60e51b815260206004820181905260248201527f4f776e61626c653a2063616c6c6572206973206e6f7420746865206f776e657260448201526064016109f9565b61169f60006143bf565b565b6010818154811061145d57600080fd5b7f00000000000000000000000000000000000000000000000000000000000000006001600160a01b0316331480156116eb575060065460ff165b6117455760405162461bcd60e51b815260206004820152602560248201527f43616c6c657220646f6573206e6f7420686176652061646d696e2070726976696044820152646c6567657360d81b60648201526084016109f9565b6040516323b872dd60e01b81523060048201526001600160a01b037f000000000000000000000000000000000000000000000000000000000000000081166024830152604482018390527f000000000000000000000000000000000000000000000000000000000000000016906323b872dd90606401600060405180830381600087803b1580156117d557600080fd5b505af11580156117e9573d6000803e3d6000fd5b5050505050565b60016000808282546118029190614c5e565b9091555050600054816118338160009081526009602052604090206005015461010090046001600160a01b03161590565b156118805760405162461bcd60e51b815260206004820152601560248201527f41756374696f6e20646f65736e2774206578697374000000000000000000000060448201526064016109f9565b600083815260096020526040902060050154839061010090046001600160a01b031633146118fe5760405162461bcd60e51b815260206004820152602560248201527f43616e206f6e6c792062652063616c6c65642062792061756374696f6e20437260448201526432b0ba37b960d91b60648201526084016109f9565b6000848152600960205260409020541561195a5760405162461bcd60e51b815260206004820152601760248201527f41756374696f6e20616c7265616479207374617274656400000000000000000060448201526064016109f9565b6000848152600960205260408120600581015482825560018201839055600282018390556003820183905561010090046001600160a01b0316916119a16004830182614650565b5060058101805474ffffffffffffffffffffffffffffffffffffffffff191690556006810180546001600160a01b03199081169091556007909101805490911690556040516323b872dd60e01b81523060048201526001600160a01b038281166024830152604482018790527f000000000000000000000000000000000000000000000000000000000000000016906323b872dd90606401600060405180830381600087803b158015611a5357600080fd5b505af1158015611a67573d6000803e3d6000fd5b5050506000868152600860209081526040808320805460ff19169055600a82529182902080546001600160a01b0319166001600160a01b0386811691821790925583517f00000000000000000000000000000000000000000000000000000000000000009092168252918101919091528792507f31e46b3372adff8978a18a1c543a6b3a925ee693bdf7a7c54df36f30f87d290e910160405180910390a2505050600054811461137057600080fd5b6040516331a9108f60e11b8152600481018390526000907f00000000000000000000000000000000000000000000000000000000000000006001600160a01b031690636352211e9060240160206040518083038186803b158015611b7957600080fd5b505afa158015611b8d573d6000803e3d6000fd5b505050506040513d601f19601f82011682018060405250810190611bb1919061473e565b6001600160a01b0316336001600160a01b031614611c115760405162461bcd60e51b815260206004820152601c60248201527f4572726f722c20796f7520617265206e6f7420746865206f776e65720000000060448201526064016109f9565b600083815260086020908152604091829020805460ff191685151590811790915582518681529182015233917f3fd63d9ca8dc693a1b9911e664951294721009a4f6239c862d6719a160a1edfc910160405180910390a250600192915050565b7f00000000000000000000000000000000000000000000000000000000000000006001600160a01b031633148015611cab575060065460ff165b611d055760405162461bcd60e51b815260206004820152602560248201527f43616c6c657220646f6573206e6f7420686176652061646d696e2070726976696044820152646c6567657360d81b60648201526084016109f9565b6006805460ff19169055565b611d1f600280546001019055565b60118481548110611d4057634e487b7160e01b600052603260045260246000fd5b90600052602060002001546001611d579190614c5e565b60118581548110611d7857634e487b7160e01b600052603260045260246000fd5b906000526020600020018190555060108481548110611da757634e487b7160e01b600052603260045260246000fd5b906000526020600020015460118581548110611dd357634e487b7160e01b600052603260045260246000fd5b90600052602060002001541115611e2c5760405162461bcd60e51b815260206004820152601660248201527f54686973204c6576656c20697320736f6c64206f75740000000000000000000060448201526064016109f9565b6000611e3760025490565b9050600354811115611e8b5760405162461bcd60e51b815260206004820152601b60248201527f43616e6e6f74206d696e74206f766572204d6178204c696d697421000000000060448201526064016109f9565b6000848152600c602090815260409091208451611eaa928601906145cc565b506000848152600d60209081526040918290208790559051611ed691016208aa8960eb1b815260030190565b6040516020818303038152906040528051906020012083604051602001611efd9190614a79565b604051602081830303815290604052805190602001201415611ff957600e8581548110611f3a57634e487b7160e01b600052603260045260246000fd5b600091825260208083209091015486835260079091526040909120819055341015611fba5760405162461bcd60e51b815260206004820152602a60248201527f6d73672e76616c75652073686f756c6420626520657175616c20746f2074686560448201526908189d5e505b5bdd5b9d60b21b60648201526084016109f9565b600084815260076020526040902054611ff4907f00000000000000000000000000000000000000000000000000000000000000009061428e565b61221f565b600f858154811061201a57634e487b7160e01b600052603260045260246000fd5b600091825260208083209091015486835260079091526040918290208190559051600b90612049908690614a79565b908152604051908190036020018120546370a0823160e01b82523360048301526001600160a01b0316906370a082319060240160206040518083038186803b15801561209457600080fd5b505afa1580156120a8573d6000803e3d6000fd5b505050506040513d601f19601f820116820180604052508101906120cc91906148d9565b10156121405760405162461bcd60e51b815260206004820152603260248201527f746f6b656e2062616c616e63652073686f756c6420626520677265617465722060448201527f7468616e2074686520627579416d6f756e74000000000000000000000000000060648201526084016109f9565b600b836040516121509190614a79565b9081526040805191829003602090810183205460008881526007909252919020546323b872dd60e01b83523360048401526001600160a01b037f000000000000000000000000000000000000000000000000000000000000000081166024850152604484019190915216906323b872dd90606401602060405180830381600087803b1580156121de57600080fd5b505af11580156121f2573d6000803e3d6000fd5b505050506040513d601f19601f8201168201806040525081019061221691906147d7565b61221f57600080fd5b6000848152600860209081526040808320805460ff19169055600a9091529081902080546001600160a01b03191633908117909155905163399f900b60e21b81527f00000000000000000000000000000000000000000000000000000000000000006001600160a01b03169163e67e402c916122a19188918790600401614b43565b600060405180830381600087803b1580156122bb57600080fd5b505af11580156122cf573d6000803e3d6000fd5b5050506000858152600760205260408082205490513393507faef46b3a67fc595d82905705d752db69d9b1287c1b7a1bd105bf66ec482713c69261231a929188918a91899190614b74565b60405180910390a25050505050565b61233283614411565b6000838152600760205260409020548211156123905760405162461bcd60e51b815260206004820152601960248201527f4572726f722c207072696365206973206e6f74206d617463680000000000000060448201526064016109f9565b6000838152600c602090815260409182902091516123af929101614a95565b60405160208183030381529060405280519060200120816040516020016123d69190614a79565b60405160208183030381529060405280519060200120146124395760405162461bcd60e51b815260206004820181905260248201527f4572726f722c205061796d656e742054797065206973206e6f74206d6174636860448201526064016109f9565b6000838152600a60209081526040918290205491516001600160a01b039092169161246e91016208aa8960eb1b815260030190565b60405160208183030381529060405280519060200120826040516020016124959190614a79565b6040516020818303038152906040528051906020012014156125bb576000848152600760205260409020543410156125225760405162461bcd60e51b815260206004820152602a60248201527f6d73672e76616c75652073686f756c6420626520657175616c20746f2074686560448201526908189d5e505b5bdd5b9d60b21b60648201526084016109f9565b6004546000858152600760205260408120549091612548916103e8916110199190614263565b6000868152600760205260408120549192509061256590836143b3565b6000878152600a602052604090205490915061258a906001600160a01b03168261428e565b6125b47f00000000000000000000000000000000000000000000000000000000000000008361428e565b50506128a6565b60008481526007602052604090819020549051600b906125dc908590614a79565b908152604051908190036020018120546370a0823160e01b82523360048301526001600160a01b0316906370a082319060240160206040518083038186803b15801561262757600080fd5b505afa15801561263b573d6000803e3d6000fd5b505050506040513d601f19601f8201168201806040525081019061265f91906148d9565b10156126d35760405162461bcd60e51b815260206004820152603260248201527f746f6b656e2062616c616e63652073686f756c6420626520677265617465722060448201527f7468616e2074686520627579416d6f756e74000000000000000000000000000060648201526084016109f9565b60055460008581526007602052604081205490916126f9916103e8916110199190614263565b6000868152600760205260408120549192509061271690836143b3565b9050600b846040516127289190614a79565b90815260408051602092819003830181205460008a8152600a90945291909220546323b872dd60e01b83523360048401526001600160a01b0390811660248401526044830184905216906323b872dd90606401602060405180830381600087803b15801561279557600080fd5b505af11580156127a9573d6000803e3d6000fd5b505050506040513d601f19601f820116820180604052508101906127cd91906147d7565b6127d657600080fd5b600b846040516127e69190614a79565b908152604051908190036020018120546323b872dd60e01b82523360048301526001600160a01b037f0000000000000000000000000000000000000000000000000000000000000000811660248401526044830185905216906323b872dd90606401602060405180830381600087803b15801561286257600080fd5b505af1158015612876573d6000803e3d6000fd5b505050506040513d601f19601f8201168201806040525081019061289a91906147d7565b6128a357600080fd5b50505b6040516323b872dd60e01b8152306004820152336024820152604481018590527f00000000000000000000000000000000000000000000000000000000000000006001600160a01b0316906323b872dd90606401600060405180830381600087803b15801561291457600080fd5b505af1158015612928573d6000803e3d6000fd5b5050506000858152600a6020908152604080832080546001600160a01b0319163390811790915560088352818420805460ff1916905560078352928190205481519081529182018890529192506001600160a01b038416917f46661dab58311a6838247afecbee792192b4f27fc8b3e7168c66bc55ec2e404e910160405180910390a350505050565b6000818152600a60205260409020546001600160a01b03163314612a175760405162461bcd60e51b815260206004820152601360248201527f73656e646572206973206e6f74206f776e65720000000000000000000000000060448201526064016109f9565b60008181526008602052604090205460ff161515600114612a7a5760405162461bcd60e51b815260206004820152600e60248201527f416c726561647920636f6c73656400000000000000000000000000000000000060448201526064016109f9565b6040516323b872dd60e01b8152306004820152336024820152604481018290527f00000000000000000000000000000000000000000000000000000000000000006001600160a01b0316906323b872dd90606401600060405180830381600087803b158015612ae857600080fd5b505af1158015612afc573d6000803e3d6000fd5b5050506000828152600860209081526040808320805460ff19169055600990915290206005015461010090046001600160a01b03163314159050612bb157600081815260096020526040812081815560018101829055600281018290556003810182905590612b6e6004830182614650565b5060058101805474ffffffffffffffffffffffffffffffffffffffffff191690556006810180546001600160a01b03199081169091556007909101805490911690555b50565b7f00000000000000000000000000000000000000000000000000000000000000006001600160a01b031633148015612bee575060065460ff165b612c485760405162461bcd60e51b815260206004820152602560248201527f43616c6c657220646f6573206e6f7420686176652061646d696e2070726976696044820152646c6567657360d81b60648201526084016109f9565b612c56600280546001019055565b6011600881548110612c7857634e487b7160e01b600052603260045260246000fd5b90600052602060002001546001612c8f9190614c5e565b6011600881548110612cb157634e487b7160e01b600052603260045260246000fd5b90600052602060002001819055506010600881548110612ce157634e487b7160e01b600052603260045260246000fd5b90600052602060002001546011600881548110612d0e57634e487b7160e01b600052603260045260246000fd5b90600052602060002001541115612d675760405162461bcd60e51b815260206004820152601660248201527f54686973204c6576656c20697320736f6c64206f75740000000000000000000060448201526064016109f9565b6000612d7260025490565b9050600354811115612dc65760405162461bcd60e51b815260206004820152601b60248201527f43616e6e6f74206d696e74206f766572204d6178204c696d697421000000000060448201526064016109f9565b6000848152600c602090815260409091208451612de5928601906145cc565b506040516208aa8960eb1b60208201526023016040516020818303038152906040528051906020012083604051602001612e1f9190614a79565b604051602081830303815290604052805190602001201415612e7e57600e600881548110612e5d57634e487b7160e01b600052603260045260246000fd5b60009182526020808320909101548683526007909152604090912055612ebd565b600f600881548110612ea057634e487b7160e01b600052603260045260246000fd5b600091825260208083209091015486835260079091526040909120555b6000848152600d602090815260408083206008908190558252808320805460ff19169055600a9091529081902080546001600160a01b0319166001600160a01b0388811691909117909155905163399f900b60e21b81527f00000000000000000000000000000000000000000000000000000000000000009091169063e67e402c90612f5190879089908790600401614b43565b600060405180830381600087803b158015612f6b57600080fd5b505af1158015612f7f573d6000803e3d6000fd5b5050506000858152600760205260408082205490516001600160a01b03891693507faef46b3a67fc595d82905705d752db69d9b1287c1b7a1bd105bf66ec482713c69261231a929188918a91899190614b74565b7f00000000000000000000000000000000000000000000000000000000000000006001600160a01b03163314801561300d575060065460ff165b6130675760405162461bcd60e51b815260206004820152602560248201527f43616c6c657220646f6573206e6f7420686176652061646d696e2070726976696044820152646c6567657360d81b60648201526084016109f9565b6006805461ff00191690556040513381527f5db9ee0a495bf2e6ff9c91a7834c1ba4fdd244a5e8aa4e537bd38aeae4b073aa90602001611443565b60016000808282546130b49190614c5e565b9091555050600054600654610100900460ff16156131095760405162461bcd60e51b815260206004820152601260248201527110dbdb9d1c9858dd081a5cc81c185d5cd95960721b60448201526064016109f9565b600082815260096020526040902060020154829015801590613133575061312f81614241565b4210155b61317f5760405162461bcd60e51b815260206004820152601860248201527f41756374696f6e206861736e277420636f6d706c65746564000000000000000060448201526064016109f9565b600083815260096020526040902060050154839061010090046001600160a01b03163314806131c757506000818152600960205260409020600601546001600160a01b031633145b6132215760405162461bcd60e51b815260206004820152602560248201527f43616e206f6e6c792062652063616c6c65642062792061756374696f6e20437260448201526432b0ba37b960d91b60648201526084016109f9565b6000848152600960205260408120600681015481546005830154600490930180546001600160a01b0393841695929461010090049093169261326290614cf8565b80601f016020809104026020016040519081016040528092919081815260200182805461328e90614cf8565b80156132db5780601f106132b0576101008083540402835291602001916132db565b820191906000526020600020905b8154815290600101906020018083116132be57829003601f168201915b50505060008b8152600960205260408120818155600181018290556002810182905560038101829055939450915061331890506004830182614650565b5060058101805474ffffffffffffffffffffffffffffffffffffffffff191690556006810180546001600160a01b03199081169091556007909101805490911690556001600160a01b03841661341c576040516323b872dd60e01b81523060048201526001600160a01b038381166024830152604482018a90527f000000000000000000000000000000000000000000000000000000000000000016906323b872dd90606401600060405180830381600087803b1580156133d857600080fd5b505af11580156133ec573d6000803e3d6000fd5b5050506000898152600a6020526040902080546001600160a01b0319166001600160a01b0385161790555061374a565b6040516323b872dd60e01b81523060048201526001600160a01b038581166024830152604482018a90527f000000000000000000000000000000000000000000000000000000000000000016906323b872dd90606401600060405180830381600087803b15801561348c57600080fd5b505af11580156134a0573d6000803e3d6000fd5b505050506040516020016134bd906208aa8960eb1b815260030190565b60405160208183030381529060405280519060200120816040516020016134e49190614a79565b60405160208183030381529060405280519060200120141561356257600061351d6103e86110196004548761426390919063ffffffff16565b90506135497f00000000000000000000000000000000000000000000000000000000000000008261428e565b61355c8361355786846143b3565b61428e565b50613722565b600061357f6103e86110196005548761426390919063ffffffff16565b9050600b826040516135919190614a79565b9081526040519081900360200181205463a9059cbb60e01b82526001600160a01b037f00000000000000000000000000000000000000000000000000000000000000008116600484015260248301849052169063a9059cbb90604401602060405180830381600087803b15801561360757600080fd5b505af115801561361b573d6000803e3d6000fd5b505050506040513d601f19601f8201168201806040525081019061363f91906147d7565b61364857600080fd5b600b826040516136589190614a79565b908152604051908190036020019020546001600160a01b031663a9059cbb8461368187856143b3565b6040517fffffffff0000000000000000000000000000000000000000000000000000000060e085901b1681526001600160a01b0390921660048301526024820152604401602060405180830381600087803b1580156136df57600080fd5b505af11580156136f3573d6000803e3d6000fd5b505050506040513d601f19601f8201168201806040525081019061371791906147d7565b61372057600080fd5b505b6000888152600a6020526040902080546001600160a01b0319166001600160a01b0386161790555b600088815260086020908152604091829020805460ff1916905581517f00000000000000000000000000000000000000000000000000000000000000006001600160a01b039081168252858116928201929092529086168183015260608101859052905189917f19f5e73c484e5274d91de54225d8a1330339f61b5f27dbe05c47ff361b8dd3c1919081900360800190a2505050505050600054811461137057600080fd5b600e818154811061145d57600080fd5b6001546001600160a01b031633146138595760405162461bcd60e51b815260206004820181905260248201527f4f776e61626c653a2063616c6c6572206973206e6f7420746865206f776e657260448201526064016109f9565b61021081116138aa5760405162461bcd60e51b815260206004820152601a60248201527f53686f756c6420626967676572207468616e2064656661756c7400000000000060448201526064016109f9565b600355565b6001546001600160a01b031633146139095760405162461bcd60e51b815260206004820181905260248201527f4f776e61626c653a2063616c6c6572206973206e6f7420746865206f776e657260448201526064016109f9565b6000600b8360405161391b9190614a79565b908152604051908190036020018120546370a0823160e01b82523060048301526001600160a01b0316906370a082319060240160206040518083038186803b15801561396657600080fd5b505afa15801561397a573d6000803e3d6000fd5b505050506040513d601f19601f8201168201806040525081019061399e91906148d9565b905080821115613a165760405162461bcd60e51b815260206004820152602660248201527f496e73756666696369656e7420746f6b656e2062616c616e636520746f20776960448201527f746864726177000000000000000000000000000000000000000000000000000060648201526084016109f9565b600b83604051613a269190614a79565b9081526040519081900360200181205463a9059cbb60e01b8252336004830152602482018390526001600160a01b03169063a9059cbb90604401602060405180830381600087803b158015613a7a57600080fd5b505af1158015613a8e573d6000803e3d6000fd5b505050506040513d601f19601f82011682018060405250810190613ab291906147d7565b613abb57600080fd5b505050565b600c6020526000908152604090208054613ad990614cf8565b80601f0160208091040260200160405190810160405280929190818152602001828054613b0590614cf8565b8015613b525780601f10613b2757610100808354040283529160200191613b52565b820191906000526020600020905b815481529060010190602001808311613b3557829003601f168201915b505050505081565b60007f00000000000000000000000000000000000000000000000000000000000000006001600160a01b031633148015613b96575060065460ff165b613bf05760405162461bcd60e51b815260206004820152602560248201527f43616c6c657220646f6573206e6f7420686176652061646d696e2070726976696044820152646c6567657360d81b60648201526084016109f9565b613c1a7f000000000000000000000000000000000000000000000000000000000000000083614569565b92915050565b6001600080828254613c329190614c5e565b9091555050600054600654610100900460ff1615613c875760405162461bcd60e51b815260206004820152601260248201527110dbdb9d1c9858dd081a5cc81c185d5cd95960721b60448201526064016109f9565b85613cb08160009081526009602052604090206005015461010090046001600160a01b03161590565b613cfc5760405162461bcd60e51b815260206004820152601660248201527f41756374696f6e20616c7265616479206578697374730000000000000000000060448201526064016109f9565b33613d0657600080fd5b6000878152600a6020526040902080546001600160a01b03191633179055613d2f878585613ebd565b6040805161012081018252600080825260208083018981528385018b8152606085018a8152608086018a8152603260a08801523360c088015260e087018690527f00000000000000000000000000000000000000000000000000000000000000006001600160a01b03166101008801528e865260098552969094208551815591516001830155516002820155915160038301559251805192939192613dda92600485019201906145cc565b5060a082015160058201805460c085015160ff90931674ffffffffffffffffffffffffffffffffffffffffff19909116176101006001600160a01b0393841681029190911790915560e08401516006840180546001600160a01b031990811692851692909217905593015160079092018054909316911617905560405187907faf28756bc1e562d40cb95e5867314a58926ea413130138ca11b3b2d6db787c6190613e8e9089908990899089903390614bba565b60405180910390a2506000548114613ea557600080fd5b505050505050565b6011818154811061145d57600080fd5b6000838152600a60205260409020546001600160a01b03163314613f235760405162461bcd60e51b815260206004820152601360248201527f73656e646572206973206e6f74206f776e65720000000000000000000000000060448201526064016109f9565b60008381526008602052604090205460ff1615613f825760405162461bcd60e51b815260206004820152600e60248201527f416c7265616479206f70656e656400000000000000000000000000000000000060448201526064016109f9565b6000838152600760205260409020548210156140065760405162461bcd60e51b815260206004820152602560248201527f5072696365206973206c6f776572207468616e207468652063757272656e742060448201527f707269636500000000000000000000000000000000000000000000000000000060648201526084016109f9565b6040517f095ea7b3000000000000000000000000000000000000000000000000000000008152306004820152602481018490527f00000000000000000000000000000000000000000000000000000000000000006001600160a01b03169063095ea7b390604401600060405180830381600087803b15801561408757600080fd5b505af115801561409b573d6000803e3d6000fd5b50506040516323b872dd60e01b8152336004820152306024820152604481018690527f00000000000000000000000000000000000000000000000000000000000000006001600160a01b031692506323b872dd9150606401600060405180830381600087803b15801561410d57600080fd5b505af1158015614121573d6000803e3d6000fd5b5050506000848152600860209081526040808320805460ff1916600117905560078252808320869055600c825290912083516112e1935090918401906145cc565b6001546001600160a01b031633146141bc5760405162461bcd60e51b815260206004820181905260248201527f4f776e61626c653a2063616c6c6572206973206e6f7420746865206f776e657260448201526064016109f9565b6001600160a01b0381166142385760405162461bcd60e51b815260206004820152602660248201527f4f776e61626c653a206e6577206f776e657220697320746865207a65726f206160448201527f646472657373000000000000000000000000000000000000000000000000000060648201526084016109f9565b612bb1816143bf565b60008181526009602052604081206001810154600290910154613c1a91614282565b600061426f8284614c96565b9392505050565b600061426f8284614c76565b600061426f8284614c5e565b6142988282614569565b611370577f00000000000000000000000000000000000000000000000000000000000000006001600160a01b031663d0e30db0826040518263ffffffff1660e01b81526004016000604051808303818588803b1580156142f757600080fd5b505af115801561430b573d6000803e3d6000fd5b505060405163a9059cbb60e01b81526001600160a01b038681166004830152602482018690527f000000000000000000000000000000000000000000000000000000000000000016935063a9059cbb92506044019050602060405180830381600087803b15801561437b57600080fd5b505af115801561438f573d6000803e3d6000fd5b505050506040513d601f19601f82011682018060405250810190613abb91906147d7565b600061426f8284614cb5565b600180546001600160a01b038381166001600160a01b0319831681179093556040519116919082907f8be0079c531659141344cd1fd0a4f28419497f9722a3daafe3b4186f6b6457e090600090a35050565b60008181526008602052604090205460ff16806144705760405162461bcd60e51b815260206004820152601960248201527f4974656d206e6f74206c69737465642063757272656e746c790000000000000060448201526064016109f9565b6040516331a9108f60e11b8152600481018390527f00000000000000000000000000000000000000000000000000000000000000006001600160a01b031690636352211e9060240160206040518083038186803b1580156144d057600080fd5b505afa1580156144e4573d6000803e3d6000fd5b505050506040513d601f19601f82011682018060405250810190614508919061473e565b6001600160a01b0316336001600160a01b031614156113705760405162461bcd60e51b815260206004820152601860248201527f43616e206e6f7420627579207768617420796f75206f776e000000000000000060448201526064016109f9565b600080836001600160a01b03168361753090604051600060405180830381858888f193505050503d80600081146145bc576040519150601f19603f3d011682016040523d82523d6000602084013e6145c1565b606091505b509095945050505050565b8280546145d890614cf8565b90600052602060002090601f0160209004810192826145fa5760008555614640565b82601f1061461357805160ff1916838001178555614640565b82800160010185558215614640579182015b82811115614640578251825591602001919060010190614625565b5061464c929150614686565b5090565b50805461465c90614cf8565b6000825580601f1061466c575050565b601f016020900490600052602060002090810190612bb191905b5b8082111561464c5760008155600101614687565b600082601f8301126146ab578081fd5b813567ffffffffffffffff808211156146c6576146c6614d49565b604051601f8301601f19908116603f011681019082821181831017156146ee576146ee614d49565b81604052838152866020858801011115614706578485fd5b8360208701602083013792830160200193909352509392505050565b600060208284031215614733578081fd5b813561426f81614d5f565b60006020828403121561474f578081fd5b815161426f81614d5f565b6000806000806080858703121561476f578283fd5b843561477a81614d5f565b935060208501359250604085013567ffffffffffffffff8082111561479d578384fd5b6147a98883890161469b565b935060608701359150808211156147be578283fd5b506147cb8782880161469b565b91505092959194509250565b6000602082840312156147e8578081fd5b815161426f81614d74565b600060208284031215614804578081fd5b813567ffffffffffffffff81111561481a578182fd5b6148268482850161469b565b949350505050565b60008060408385031215614840578182fd5b823567ffffffffffffffff811115614856578283fd5b6148628582860161469b565b925050602083013561487381614d5f565b809150509250929050565b60008060408385031215614890578182fd5b823567ffffffffffffffff8111156148a6578283fd5b6148b28582860161469b565b95602094909401359450505050565b6000602082840312156148d2578081fd5b5035919050565b6000602082840312156148ea578081fd5b5051919050565b60008060408385031215614903578182fd5b82359150602083013561487381614d74565b600080600060608486031215614929578283fd5b83359250602084013567ffffffffffffffff811115614946578283fd5b6149528682870161469b565b925050604084013590509250925092565b600080600060608486031215614977578283fd5b8335925060208401359150604084013567ffffffffffffffff81111561499b578182fd5b6149a78682870161469b565b9150509250925092565b600080600080608085870312156149c6578384fd5b8435935060208501359250604085013567ffffffffffffffff8082111561479d578384fd5b600080600080600060a08688031215614a02578081fd5b85359450602086013593506040860135925060608601359150608086013567ffffffffffffffff811115614a34578182fd5b614a408882890161469b565b9150509295509295909350565b60008151808452614a65816020860160208601614ccc565b601f01601f19169290920160200192915050565b60008251614a8b818460208701614ccc565b9190910192915050565b600080835482600182811c915080831680614ab157607f831692505b6020808410821415614ad157634e487b7160e01b87526022600452602487fd5b818015614ae55760018114614af657614b22565b60ff19861689528489019650614b22565b60008a815260209020885b86811015614b1a5781548b820152908501908301614b01565b505084890196505b509498975050505050505050565b60208152600061426f6020830184614a4d565b8381526001600160a01b0383166020820152606060408201526000614b6b6060830184614a4d565b95945050505050565b85815260a060208201526000614b8d60a0830187614a4d565b8560408401528281036060840152614ba58186614a4d565b91505082151560808301529695505050505050565b85815284602082015283604082015260a060608201526000614bdf60a0830185614a4d565b90506001600160a01b03831660808301529695505050505050565b60006101208b83528a6020840152896040840152886060840152806080840152614c2681840189614a4d565b60ff9790971660a084015250506001600160a01b0393841660c082015291831660e08301529091166101009091015295945050505050565b60008219821115614c7157614c71614d33565b500190565b600082614c9157634e487b7160e01b81526012600452602481fd5b500490565b6000816000190483118215151615614cb057614cb0614d33565b500290565b600082821015614cc757614cc7614d33565b500390565b60005b83811015614ce7578181015183820152602001614ccf565b838111156112e15750506000910152565b600181811c90821680614d0c57607f821691505b60208210811415614d2d57634e487b7160e01b600052602260045260246000fd5b50919050565b634e487b7160e01b600052601160045260246000fd5b634e487b7160e01b600052604160045260246000fd5b6001600160a01b0381168114612bb157600080fd5b8015158114612bb157600080fdfea2646970667358221220a8c5e7df635ef1a32454a89b74493a25fa120c43cf00dea2b4825c688748f91164736f6c63430008040033",
  "linkReferences": {},
  "deployedLinkReferences": {}
}